:040000008A11112828
:10000800FE00030E83120313A6000408A7000A08C3
:10001800A8007F08A9008A1172288A111328AE0146
:10002800AF01B001B101B201B30183018A111C28EB
:100038008B1383120313850186018701031383162B
:100048000630831603139F001C149C141C15811280
:10005800850186018701871798121812181519301B
:10006800990014178C168312031303138312850146
:100078008601870118139811981718161412140876
:10008800F0390238940094160B178C120B168B104B
:100098008B128B118B17013083120313B0070318CF
:1000A800B10A0030B107C83030063104031D6A2890
:1000B8000310051C0314031C65288312031305147D
:1000C8006828831203130510B001B1018030AA001B
:1000D8000030AB008A11B4208A114F281A08A400F6
:1000E800A5012408B2002508B300CC303206330439
:1000F800031D8028013087282E032F04031D8B2819
:10010800320893000230AE000030AF00A828023059
:100118002E062F04031DA828320893008030A00063
:100128000030A1008A11CA208A118312031307150F
:100138008030A0000030A1008A11CA208A118312E1
:1001480003130711AE01AF018C122908FF0028081C
:100158008A0027088400260E8300FE0E7E0E090002
:1001680083120313AC01AD01FF30AA070318AB0AD1
:10017800FF30AB072A0A03192B0A031908000130BC
:10018800AC070318AD0A0030AD07B8288312031373
:10019800A201A301FF30A0070318A10AFF30A1079D
:1001A800200A0319210A031908000130A2070318BD
:0801B800A30A0030A307CE28C2
:02400E0079FF38
:00000001FF
