:040000008A11112828
:10000800FE00030E83120313A6000408A7000A08C3
:10001800A8007F08A9008A118A288A111328AE012E
:10002800AF01B001B101B201B30183018A111C28EB
:100038008B1383120313850186018701031383162B
:100048000630831603139F001C149C141C15811280
:10005800850186018701871798121812181519301B
:10006800990014178C168312031303138312850146
:100078008601870118139811981718161412140876
:10008800F0390238940094160B178C120B168B104B
:100098008B128B11FF30831603139200CC3083121E
:1000A8000313950017129712920192101214121549
:1000B8001715171D632883120313971566288312D3
:1000C800031397118B17013083120313B00703181A
:1000D800B10A0030B107C83030063104031D822848
:1000E8000310051C0314031C7D2883120313051435
:1000F8008028831203130510B001B1018030AA00D3
:100108000030AB008A11CC208A1167281A08A40095
:10011800A5012408B2002508B300CC303206330408
:10012800031D982801309F282E032F04031DA328A0
:10013800320893000230AE000030AF00C028023011
:100148002E062F04031DC028320893008030A0001B
:100158000030A1008A11E2208A1183120313871448
:100168008030A0000030A1008A11E2208A11831299
:1001780003138710AE01AF018C122908FF0028086D
:100188008A0027088400260E8300FE0E7E0E0900D2
:1001980083120313AC01AD01FF30AA070318AB0AA1
:1001A800FF30AB072A0A03192B0A0319080001308C
:1001B800AC070318AD0A0030AD07D028831203132B
:1001C800A201A301FF30A0070318A10AFF30A1076D
:1001D800200A0319210A031908000130A20703188D
:0801E800A30A0030A307E6287A
:02400E0079FF38
:00000001FF
